:1000000002007553D9BF12008153C70F7FF47E01E0
:1000100012005A050B530B0353C70FE50B14600F67
:10002000146011146013240370E243C71080DD4391
:10003000C72080D843C74080D343C78080CE75F2A5
:10004000FE75A4D175A5F875A61F75A7FF75AEF04E
:1000500075D40C75E10375E24022EF1FAA0670010A
:100060001E4A60107C037D5EED1DAA0470011C4ACF
:1000700060E880F422787FE4F6D8FD7581200200E4
:080080000312003E75B2832259
:00000001FF
