:020000040800F2
:100000006007002089010008BB170008611500087F
:10001000B91700088B020008C91B00080000000087
:10002000000000000000000000000000BF170008F2
:100030008D02000800000000BD170008C11700086D
:10004000A3010008A3010008A3010008A301000800
:10005000A3010008A3010008A3010008A3010008F0
:10006000A3010008A3010008A3010008A3010008E0
:10007000A3010008A3010008A3010008A3010008D0
:10008000A3010008A3010008A3010008A3010008C0
:10009000A3010008A3010008A3010008A3010008B0
:1000A000A3010008A3010008A3010008A3010008A0
:1000B000A30100082518000800000000A3010008A3
:1000C000A30100080000000000000000A3010008D8
:1000D00000000000A3010008A301000800000000C8
:1000E0008F020008A3010008A301000800F002F835
:1000F00000F03AF80AA090E8000C82448344AAF188
:100100000107DA4501D100F02FF8AFF2090EBAE885
:100110000F0013F0010F18BFFB1A43F0010318473B
:100120002823000048230000103A24BF78C878C173
:10013000FAD8520724BF30C830C144BF04680C60ED
:10014000704700000023002400250026103A28BF35
:1001500078C1FBD8520728BF30C148BF0B60704739
:100160001FB51FBD10B510BD00F058F81146FFF7C0
:10017000F7FF01F07DFD00F076F803B4FFF7F2FF22
:1001800003BC00F07BF8000009488047094800479D
:10019000FEE7FEE7FEE7FEE7FEE7FEE7FEE7FEE737
:1001A000FEE7FEE704480549054A064B7047000094
:1001B00023180008ED0000086001002060070020FF
:1001C00060030020600300204FF0000200B51346DA
:1001D00094469646203922BFA0E80C50A0E80C5067
:1001E000B1F12001BFF4F7AF090728BFA0E80C5018
:1001F00048BF0CC05DF804EB890028BF40F8042B11
:1002000008BF704748BF20F8022B11F0804F18BF7D
:1002100000F8012B7047704770477047754600F033
:1002200029F8AE4605006946534620F0070085468A
:1002300018B020B5FFF7B6FFBDE820404FF000062C
:100240004FF000074FF000084FF0000B21F00701BE
:10025000AC46ACE8C009ACE8C009ACE8C009ACE801
:10026000C0098D4670470446AFF300802046FFF773
:1002700084FF000000487047FC000020014918205E
:10028000ABBEFEE7260002007047FEE770474FF462
:10029000004000F05DB872B6FEE7000010B501F056
:1002A0001FFC0F4CE079010617D52189800601EB70
:1002B0009020E06001F09CFF0A4A0B4B01F0ACFF7C
:1002C00000220A4B01F0A8FF0022094B01F038FE82
:1002D00001F004FE20610020E071206910BD0000E3
:1002E00000000020AE47E17A142675400000594016
:1002F00080843E4170B5044600F020F90546601C3C
:1003000002D004480078044400F018F9401BA042D1
:10031000FAD370BD1400002070B50B4C4FF40045AB
:100320002946204600F000F928B9084A50780328E9
:1003300008D0401C50702946204600F0F5F80028EF
:10034000F9D070BD0020F5E700100140000000204A
:10035000044910B50A68024202D00860FFF7DCFFCA
:1003600010BD0000140401402DE9F84FDFF89C9106
:100370000024A9F1040B23460F2709F1040AABF16D
:10038000040EBBE00125A5402A40AA4276D1DFF841
:1003900080C14E68A6EB0C0866452BD00DDC032E01
:1003A00034D005DC36B3012E19D0022E2FD11BE03C
:1003B000112E16D0122E2AD119E0B8F5881F19D0A7
:1003C00006DCB8F5803F15D0B8F5801F1FD111E0CD
:1003D000B8F5001F0ED0B8F5041F18D10AE0CB689D
:1003E00015E0CB681B1D12E0CB6808330FE0CB682B
:1003F0000C330CE08B682BB1012B4FF0080303D0BA
:10040000456104E0042302E0056100E00023FF2AC7
:1004100001D8064601E000F104064FEA840501D93F
:10042000A5F12005D6F8008007FA05FC28EA0C089B
:1004300003FA05F548EA0508C6F800804D68ED00A6
:100440005BD5344DAE6946F00106AE61AD6924F06E
:10045000030605F0010500952F4D06EB050CDCF8B1
:100460000850A607360F07FA06F825EA0805DFF850
:10047000AC80404503D14FF0000810E03DE0DFF8CC
:10048000A080404502D14FF0010808E0DFF89480D9
:10049000404502D14FF0020801E04FF0030808FA8E
:1004A00006F848EA0508CCF808804D68D9F80060DD
:1004B000ED024D4601D5164300E096432E604D688F
:1004C000DAF80060AD02554601D5164300E09643C8
:1004D0002E604D68DBF80060AD035D4601D5164324
:1004E00000E096432E604D68DEF80060ED0375462F
:1004F00001D5164300E096432E60641C0A6832FA68
:1005000004F57FF43FAFBDE8F88F00000804014018
:1005100000001110001002400000014000080140DE
:10052000000C0140001001408068084000D001200C
:1005300070470AB1016170470904FBE70148806810
:1005400070470000140000200248816802781144BE
:100550008160704714000020074810B5016841F021
:1005600010010160032000F075F80F2000F006F87C
:1005700000F024F8002010BD0020024070B50D4DA1
:1005800004464FF47A712878B1FBF0F00A49096803
:10059000B1FBF0F000F0DCFA48B9102C07D20022D1
:1005A0002146501E00F036F800206C6070BD01201E
:1005B00070BD000014000020200000200C4808B589
:1005C000816941F001018161816901F001010091BE
:1005D000C16941F08051C161C06900F08050009054
:1005E0000448416821F0E06141F00071416008BDBC
:1005F0000010024000000140002809DB00F01F024B
:10060000012191404009800000F1E020C0F8001174
:1006100070470000F0B40E4B1B680C46C3F3022376
:10062000C3F10705042D00D90425191D072901D29E
:10063000002300E0DB1E012606FA05F1491E2140D9
:1006400099409E40761E16403143F0BC01F0BDBA81
:100650000CED00E0064900F0070208684FF6FF03C2
:10066000184040EA0220034A104308607047000027
:100670000CED00E00000FA052DE9F0470F460500FB
:1006800061D0434E306800F00700B84209D23068AC
:1006900020F0070038433060306800F00700B842AF
:1006A00051D128683B4C810712D5400703D56068BB
:1006B00040F4E06060602878000703D5606840F48B
:1006C000605060606068A96820F0F00008436060D6
:1006D0002878C00728D06868012810D0216802282F
:1006E00010D0890700292EDA616821F00301014347
:1006F0006160FFF723FF804641F288390DE02168F1
:100700008903EFE78901EDE7FFF718FFA0EB080188
:10071000494502D90320BDE8F0876068696800F0A8
:100720000C00B0EB810FEFD1306800F00700B84249
:100730000BD9306820F0070038433060306800F093
:100740000700B84201D00120E5E72878400705D529
:100750006068E96820F4E06008436060287800077A
:1007600006D56068296920F4605040EAC1006060E5
:1007700000F038F86168084AC1F30311515CC840C1
:100780000649086006480068FFF7F8FE0020C2E747
:100790000020024000100240302400082000002009
:1007A000180000200448054900684968044AC1F35C
:1007B0000221515CC8407047200000200010024018
:1007C000402400080448054900684968044AC1F308
:1007D000C221515CC8407047200000200010024038
:1007E000402400080E4A51680E4801F00C03042B07
:1007F00011D0082B0FD10C48C1F38343C903C05C4F
:100800000AD55168084AC1F34041921E515C054A1D
:100810005043B0FBF1F07047044948437047000073
:100820000010024000127A002024000800093D0058
:100830002DE9F84F040070D02078C04DC00749D092
:100840006868C0F38100012807D06868C0F38100A0
:10085000022809D16868C00306D52868800339D505
:1008600060680028E7D035E06068B0F5803F0BD0C5
:1008700010B1B0F5A02F11D0286820F48030286086
:10088000286820F4802002E0286840F48030286046
:10089000606890B1FFF752FE06460AE0286840F40F
:1008A00080202860F0E700BFFFF748FE801B642827
:1008B00073D828688003F7D50CE0FFF73FFE0646A3
:1008C00005E000BFFFF73AFE801B6428F0D82868D7
:1008D0008003F7D420789A4E80074FF001094FF03B
:1008E000000839D5686810F00C0F07D06868C0F3AD
:1008F0008100022809D16868C00306D428688007EF
:1009000014D52069012808D110E02069B0B1C6F8DB
:100910000090FFF713FE074605E00AE1FFF70EFE21
:10092000C01B0228C4D828688007F7D528686169E9
:1009300020F0F80040EAC10028600DE0C6F8008011
:10094000FFF7FCFD074604E0FFF7F8FDC01B022897
:1009500023D828688007F7D4207800072CD5794859
:10096000A169D9B1C0F80090FFF7E8FD074604E09F
:10097000FFF7E4FDC01B02280FD8686A8007F7D58F
:1009800071484FF4FA510068B0FBF1F0009000BFDD
:100990000098411E0091FAD20EE080E0C0F800807D
:1009A000FFF7CCFD074604E0FFF7C8FDC01B022897
:1009B00075D8686A8007F7D42078400760D5E86961
:1009C0000027C00008D4E86940F08050E861E86979
:1009D000012700F0805000905C480168C90513D4DD
:1009E0000168834641F480710160FFF7A7FD8246EC
:1009F00006E000BFFFF7A2FDA0EB0A0064284ED876
:100A0000DBF80000C005F5D5E06801280AD008B180
:100A1000052813D0286A20F001002862286A20F0F7
:100A2000040002E0286A40F001002862E06841F218
:100A3000883B98B1FFF782FD82460BE0286A40F0C0
:100A400004002862EEE700BFFFF778FDA0EB0A0183
:100A500059455AD8286A8007F6D50CE0FFF76EFD95
:100A6000824605E0FFF76AFDA0EB0A0159454CD824
:100A7000286A8007F6D41FB1E86920F08050E86149
:100A8000E06988B36968C1F38101022944D0022872
:100A9000C6F8608004D0FFF751FD044638E034E02A
:100AA000FFF74CFD074604E0FFF748FDC01B022896
:100AB0002BD828688001F7D4206AB0F5803F05D193
:100AC0006868A16820F4003008436860D4E9080130
:100AD0000843696821F4741108436860C6F860909F
:100AE000FFF72CFD044606E025E000BFFFF726FDDA
:100AF000001B022809D828688001F7D51BE000BF39
:100B0000FFF71CFD001B022802D90320BDE8F88F67
:100B100028688001F4D40EE00128F7D06868226AC2
:100B200000F48031914204D1616A00F4701088426F
:100B300001D00120EAE70020E8E7000000100240B1
:100B40000000424280044242200000200070004029
:100B500010B5401EB0F1807F01D3012010BD4FF0D1
:100B6000E02460610F21601701F02FF80020A061E0
:100B700007202061002010BD7047704770B590F8C5
:100B80003C20012A23D0012480F83C40022280F836
:100B90003D2003685A689D6822F070060A68324357
:100BA0005A600C4B02689A4205D0B2F1804F02D0D5
:100BB000094B9A4204D1496825F08003194391609A
:100BC00080F83D40002180F83C10084670BD0220AE
:100BD00070BD0000002C01400004004010B504006E
:100BE00003D094F83D0010B107E0012010BD0020B3
:100BF00084F83C00204600F01FF8022084F83D00F5
:100C0000211D206800F014FE012084F8460084F8BD
:100C10003E0084F83F0084F8400084F8410084F8E6
:100C2000420084F8430084F8440084F8450084F8C6
:100C30003D00002010BD000008B50068B0F1804FF5
:100C400008D10548C16941F00101C161C06900F0E6
:100C50000100009008BD00000010024070B504467D
:100C600090F83C000025012817D0012684F83C604C
:100C7000022084F83D002068826822F0770222F486
:100C80007F4282600868502838D00DDC20284FD081
:100C900005DC90B3102811D14AE0022070BD302845
:100CA00046D040280AD13BE060282FD070280DD0D4
:100CB000B0F5805F03D0B0F5005F12D0012584F855
:100CC0003D60002084F83C00284670BDCB68D1E927
:100CD0000121206800F0E7FD2068816841F077017C
:100CE00009E0CB68D1E90121206800F0DCFD206833
:100CF000816841F480418160E1E719E0CA68496890
:100D0000206800F085FE5021206806E0CA68496826
:100D1000206800F0B7FE6021206800F0CEFDCEE72D
:100D2000CA684968206800F073FE40212068F4E733
:100D3000226801461046F0E770B500681F498842F6
:100D400016D11F4CE079010612D41E4D410610D574
:100D500040F08000E0710421284600F081FB2081F2
:100D60002868016A21F0A00101622868016A016215
:100D700070BD002121814020E0712868026A41F2A3
:100D800011131A4207D1026A9B101A4203D102685A
:100D900022F001020260286841622868016A21F09D
:100DA0000A0101622868016A41F0020101622868B3
:100DB000016841F00101016070BD000000040040C5
:100DC000000000206C0000202DE9F041054690F85D
:100DD0003C0000260C46012810D0012085F83C007C
:100DE00072B1042A1CD0082A2CD00C2A50D001261B
:100DF000002085F83C003046BDE8F0810220FBE78A
:100E0000D4E90012E368286800F014FE28688169BC
:100E100021F00C01816128688169A26811430FE00B
:100E2000D4E90012E368286800F03EFE2868816972
:100E300021F44061816128688169A26841EA022148
:100E40008161D5E72868D4E9002C277B036A016A11
:100E500021F480710162C16923F4007321F0030160
:100E600041EA0C0121F0F00C39074FF400774CEA0D
:100E7000116107EA02221A43C16102622868C1694E
:100E800021F00C01C1612868C169A26811432BE0FF
:100E90002868D4E90021E768036AD0F820C02CF460
:100EA000805CC0F820C0D0F81CC023F400532CF4A0
:100EB000407C4CEA012121F4704C4FF6FF7101EAAD
:100EC00007314FF4005741EA0C0107EA02321A4396
:100ED000C16102622868C16921F44061C16128686A
:100EE000C169A26841EA0221C16181E710B504002D
:100EF00003D094F83D0010B107E0012010BD0020A0
:100F000084F83C00204600F01FF8022084F83D00E1
:100F1000211D206800F08CFC012084F8460084F834
:100F20003E0084F83F0084F8400084F8410084F8D3
:100F3000420084F8430084F8440084F8450084F8B3
:100F40003D00002010BD000000B585B000210091DB
:100F500001910291039100681649884227D11648F1
:100F6000C16941F00201C161C16901F0020104914E
:100F7000816941F0080181618069694600F00800DB
:100F80000490202000900D48FFF7EEF90C484168CE
:100F900021F4406141F0E06141F4006141600022D0
:100FA00005211D20FFF736FB1D20FFF725FB05B0AF
:100FB00000BD00000004004000100240000C014091
:100FC0000000014030B50446002551B104290DD080
:100FD000082910D094F8410094F84520012811D137
:100FE0000EE094F83E0094F84220F7E794F83F00B2
:100FF00094F84320F2E794F8400094F84420EDE799
:10100000012A01D0012030BD022059B1042912D09B
:10101000082919D084F8410084F845000C2935D0FE
:10102000012531E084F83E0084F842002068C2685F
:1010300042F0020210E084F83F0084F84300206888
:10104000C26842F0040207E084F8400084F84400DB
:101050002068C26842F00802C2600122206800F0E5
:1010600015FC0D492068884205D0B0F1804F02D0B0
:101070000A49884204D1816801F00701062903D09A
:10108000016841F001010160284630BD2068C26856
:1010900042F01002E0E70000002C01400004004094
:1010A00070B50446006801694FF00005C94389071F
:1010B00015D4C168C943890711D4E91E0161012013
:1010C0002077206880698007204602D0FFF734FE31
:1010D00004E000F0C9F8204600F05BF925772068AD
:1010E0000169C943490717D4C168C943490713D4E3
:1010F0006FF004010161022020772068806910F4FC
:10110000407F204602D0FFF717FE04E000F0ACF865
:10111000204600F03EF9257720680169C943090798
:1011200016D4C168C943090712D46FF008010161E0
:10113000042020772068C0698007204602D0FFF78E
:10114000FBFD04E000F090F8204600F022F925773E
:1011500020680169C943C90617D4C168C943C906D3
:1011600013D46FF010010161082020772068C06956
:1011700010F4407F204602D0FFF7DEFD04E000F0CF
:1011800073F8204600F005F9257720680169C94306
:10119000C90708D1C168C943C90704D1891E0161C3
:1011A000204600F041F920680169C943090609D4C5
:1011B000C168C943090605D46FF08001016120466A
:1011C000FFF7DAFC20680169C943490609D4C16800
:1011D000C943490605D46FF040010161204600F083
:1011E00054F920680169C94389060BD4C168C94311
:1011F000890607D46FF0200101612046BDE87040E8
:10120000FFF7BBBC70BD000000B585B000210091A8
:101210000191029103910068B0F1804F1BD10F48FA
:10122000816941F0080181618069694600F0080028
:1012300004904FF440600090022001900390084811
:10124000FFF792F80748416821F4407141F0E061EE
:1012500041F40071416005B000BD00000010024083
:10126000000C014000000140704770B5044690F842
:101270003C0000260D4601280FD0012084F83C00D8
:101280006AB1042A1DD0082A2FD00C2A3FD001268B
:10129000002084F83C00304670BD022070BD2068FC
:1012A00000F014FB2068816941F008018161206829
:1012B000816921F004018161206881692A691143F3
:1012C00011E0206800F02AFB2068816941F4006188
:1012D00081612068816921F4806181612068816970
:1012E0002A6941EA02218161D2E7206800F042FBCD
:1012F0002068C16941F00801C1612068C16921F01D
:101300000401C1612068C1692A69114311E02068A4
:1013100000F05CFB2068C16941F40061C161206894
:10132000C16921F48061C1612068C1692A6941EA0B
:101330000221C161ACE710B5040003D094F83D0070
:1013400010B107E0012010BD002084F83C002046C9
:1013500000F01EF8022084F83D00211D206800F0F6
:1013600067FA012084F8460084F83E0084F83F00C4
:1013700084F8400084F8410084F8420084F8430077
:1013800084F8440084F8450084F83D00002010BD36
:101390007047704710B50446022249B104290ED0A7
:1013A000082913D094F84100012816D0012010BD5F
:1013B00094F83E000128F9D184F83E200FE094F81B
:1013C0003F000128F2D184F83F2008E094F8400063
:1013D0000128EBD184F8402001E084F8412001226B
:1013E000206800F053FA0E492068884203D1426C0D
:1013F00042F4004242642068884205D0B0F1804F38
:1014000002D00849884204D1816801F00701062909
:1014100003D0016841F001010160002010BD00000F
:10142000002C01400004004000680B4988420AD1AA
:101430000A49C879020606D4420604D5C243920678
:1014400002D0401CC871704740F08000C8714FF650
:10145000FF70088170470000000400400000002079
:101460000246002041B1042909D008290AD00C29DC
:1014700001D11068006C70471068406B70471068AD
:10148000806B70471068C06B7047704770B5040080
:1014900004D094F84100002510B106E0012070BD91
:1014A00084F84050204600F023F8242084F84100BE
:1014B0002068C16821F40051C160204600F028FB7B
:1014C0002068016921F4904101612068416921F09F
:1014D0002A0141612068C16841F40051C16065641E
:1014E000202084F8410084F842006563002070BD2C
:1014F00030B585B0002400940194029403940068F0
:101500001449884223D11448C16941F40031C161B2
:10151000C16901F400310491816941F004018161E4
:1015200080690E4D00F00400049004200090022019
:1015300001900320039069462846FEF715FF082016
:10154000CDE90004694628460294FEF70DFF05B078
:1015500030BD00000044004000100240000801407F
:10156000FEE700002DE9F04786B000243A480094D9
:10157000019402940394816941F0100181618169B1
:1015800001F010010491816941F0200181618169BC
:1015900001F020010491816941F0040181618169B8
:1015A00001F004010491816941F0080181618069C1
:1015B000DFF8A88000F008004FF4005504900022E6
:1015C00029464046FEF7B5FFDFF894904FF4F157F7
:1015D000002239464846FEF7ACFFDFF888A000221B
:1015E00010215046FEF7A5FF00950226012503961F
:1015F000CDE9015469464046FEF7B6FEE803009087
:101600001948CDE9010569464046FEF7ADFE009751
:101610000396CDE9015469464846FEF7A5FE4FF40E
:101620007040CDE90004694650460294FEF79CFEE6
:101630001020CDE90005CDE9024669465046FEF787
:1016400093FE002201212820FEF7E4FF2820FEF768
:10165000D3FF06B0BDE8F087001002400010014043
:1016600000080140000C01400000311010B58EB0A0
:1016700000240794089409940A940B941C2168464A
:101680000C94FEF7A1FD22484FF08041016040F22A
:10169000CF21C0E901146321C0E9031480218161D5
:1016A000FFF79CFA08B1FEF7F6FD4FF48050079063
:1016B00007A91748FFF7D2FA08B1FEF7ECFD144866
:1016C000FFF739FE08B1FEF7E6FD0B940BA91048B1
:1016D0000C94FFF753FA08B1FEF7DDFD6020CDE969
:1016E000000402940822694609480494FFF7BDFDEE
:1016F00008B1FEF7D0FD0C2269460548FFF7B5FD9D
:1017000008B1FEF7C8FD0248FFF77EFD0EB010BD20
:101710002400002010B586B00024184805940494D5
:101720000094019402941449039401606421C0E977
:1017300001144FF6FF71C0E903148461FFF7D6FB73
:1017400008B1FEF7A8FD049404A90C480594FFF71E
:1017500015FA08B1FEF79FFD0120CDE90040029483
:101760000422694605480394FFF72EFB002801D0A8
:10177000FEF791FD06B010BD000400406C00002093
:101780000C4810B50A4901604FF416514160002120
:1017900081600C22C160C0E904128161C161FFF760
:1017A00075FE002803D0BDE81040FEF774BD10BDE3
:1017B00000440040B4000020FEE7FEE77047704799
:1017C000FEF7C2BE30B58FB028216846FEF7FCFC9C
:1017D00014210AA8FEF7F8FC01210804CDE9001045
:1017E0000024029402250491CDE907504FF4E01043
:1017F00009906846FFF71CF808B172B6FEE70F20A3
:10180000CDE90A054FF48060CDE90C4002210AA819
:101810000E94FEF731FF002801D072B6FEE70FB03C
:1018200030BD70470148FFF73BBC00006C00002052
:1018300070B50268134B144C4FF08046984203D0A9
:10184000B04201D0A04203D122F070054A682A4379
:10185000984203D0B04201D0A04203D122F4407498
:10186000CA6822434C6922F08002224302608A68DF
:10187000C2620A688262984201D10969016301214A
:10188000416170BD002C01400004004010B501F022
:101890001F030121046A99408C430462016A9A4043
:1018A0001143016210BD10B5846842EA032224F49A
:1018B0007F440A432243826010BD826822F0700296
:1018C0000A4342F0070181607047000030B5036AA7
:1018D000026A22F0010202624268846924F0730500
:1018E0000C682C4323F002058B682B430A4DA84259
:1018F0000BD123F00805CB6822F440722B434D69CD
:1019000023F0040315438A692A43426084614968CD
:101910004163036230BD0000002C014030B5026A13
:10192000036A23F010030362436884690D6824F49A
:10193000E64444EA05248D6822F0200242EA0512BA
:101940000B4DA8420ED1CD6822F0800242EA05126A
:101950004D6923F4406343EA85038D6922F0400218
:1019600043EA85034360846149688163026230BD54
:10197000002C014030B5036A026A22F480720262D0
:101980004268C46923F4007324F073050C682C4387
:101990008D6843EA05230C4DA8420ED1CD6823F48F
:1019A000006343EA05234D6922F4405242EA0512DE
:1019B0008D6923F4806342EA05124260C46149687C
:1019C000C163036230BD0000002C014030B5046AE1
:1019D000026A22F4805202624268C3690D6823F4ED
:1019E000E64343EA05238D6824F4005444EA0534B1
:1019F000064DA84204D14D6922F4804242EA851284
:101A00004260C36149680164046230BD002C01403A
:101A100010B5036A046A24F001040462846924F0A6
:101A2000F00444EA021423F00A020A4384610262C9
:101A300010BD000070B5056A046A24F00104046258
:101A400084690E4EB04205D0B0F1804F02D00C4EEA
:101A5000B04203D124F00304144301E044F0010434
:101A60001A0724F0F00444EA126225F00A0301F098
:101A70000A0119438261016270BD0000002C01401F
:101A80000004004010B5036A046A24F010040462E4
:101A9000846923F0A00324F4704444EA023243EA48
:101AA00001118261016210BD30B5046A056A25F03A
:101AB00010050562856925F4407545EA022222F485
:101AC00070454FF6FF7202EA033224F0A0032A4366
:101AD000A02404EA011119438261016230BD0000B3
:101AE00010B50A4C012210212046FEF722FD0021EC
:101AF0004FF4346000BF491C8142FBD320460022D2
:101B0000BDE810401021FEF714BD0000000C01409C
:101B100070B5044600680169E26821F44051114340
:101B200001612169A0680843616908432168CA68A6
:101B300041F20C639A430243CA6020684169A2697A
:101B400021F44071114341611E492068884202D14D
:101B5000FEF738FE01E0FEF725FE00EBC00101EBC9
:101B60000012606864218000B2FBF0F3B3FBF1F374
:101B70006FF018067343B2FBF0F5B2FBF0F605EB1D
:101B80008305322303EB0515B5FBF1F5B6FBF1F642
:101B900005F0F00505EB0615B2FBF0F6B2FBF0F030
:101BA000B0FBF1F06FF01802504306EB800003EB3E
:101BB0000010B0FBF1F0216800F00F0028448860AD
:101BC00070BD000000380140FEE70907090E00283B
:101BD00004DB00F1E02080F80014704700F00F00F3
:101BE00000F1E02080F8141D70470000094A1368D6
:101BF000D8631268106408480022C0F8B02101239D
:101C0000C0F8AC31C0F8A831C0F8A4210846FEF7EE
:101C100071BB000024000020000021420749002081
:101C20000A68D063096808640549C1F8B001C1F8C1
:101C3000AC01C1F8A801C1F8A4017047240000203C
:101C40000000214208490A68D0630968086407480F
:101C50000021C0F8B011C0F8AC11C0F8A8110121E2
:101C6000C0F8A411704700002400002000002142A9
:101C7000FEF772FCFFF7A6FDFFF774FCFFF7F6FC1A
:101C8000FFF77EFDFFF746FD08211548FFF782FBB1
:101C90000C211348FFF77EFB04211248FFF792F94D
:101CA00010480068C16841F00101C1600E4D4FF459
:101CB000FA746878012809D002280AD003280BD0CA
:101CC000FFF7ACFF2046FEF715FBF2E700F0ACF89B
:101CD000EFE700F00BF8ECE700F0E2F8E9E70000CE
:101CE000240000206C000020000000202DE9F041BD
:101CF0001D4D1E4C4FF480574FF400584FF4C876DA
:101D000039462846FEF710FC207141462846FEF76A
:101D10000BFC60712179012901D061B10DE001282E
:101D200001D020B109E0282000F038F80DE028208B
:101D3000FFF788FF09E0012811D031462820FFF77E
:101D400055FF3146282000F057F860780228D7D098
:101D5000FFF764FFBDE8F041C820FEF7CBBA2820AA
:101D600000F006F8F1E70000000C01400000002040
:101D700008490A68D0630968086407480121C0F867
:101D8000B0110021C0F8AC11C0F8A811C0F8A4111E
:101D900070470000240000200000214208490A6822
:101DA000D0630968086407480121C0F8B011002217
:101DB000C0F8AC21C0F8A821C0F8A41170470000F9
:101DC0002400002000002142094A1368D8631268E9
:101DD000106408480022C0F8B0210123C0F8AC31DB
:101DE000C0F8A821C0F8A4310846FEF783BA000065
:101DF0002400002000002142094A1368D8631268B9
:101E0000106408480122C0F8B0210023C0F8AC31AA
:101E1000C0F8A821C0F8A4310846FEF76BBA00004C
:101E200024000020000021422DE9F0414FF48046BB
:101E3000194D1A4C770031462846FEF775FBA07005
:101E400039462846FEF770FBE070A178012901D1E0
:101E5000012811D051EA000203D0012905D049B16F
:101E60000AE02820FFF79AFF08E028B92820FFF7AA
:101E7000E9FE03E001280BD0FFF7D0FE60780128CF
:101E8000D9D0FFF7CBFEBDE8F041C820FEF732BA4B
:101E90002820FFF76DFFF1E7000C01400000002053
:101EA00070B50C4D0C4C00BFFEF7F8F92061A8424C
:101EB00008DCC8212820FFF799FEC8212820FFF759
:101EC00083FF02E02820FFF769FF20780328EBD08A
:101ED00070BD0000000048420000002021F00042D8
:101EE000A2F16052B2F5801F01F0004328BFD2F189
:101EF0007F6C0BD95FEA001C43EAC20242EB5070D0
:101F000018BF704728BF20F001007047B2F5801F4E
:101F1000BCBF184670474FEA410C1CF5001F02D2A7
:101F2000084600F077BA70B500F020FA000000898A
:101F3000FFF7F6BF4FF00040A0F5800070470000AB
:101F40002DE9C04130B4DFF8A0C23CEA111418BF3B
:101F50003CEA131400F0EC8081EA03051CEA11143A
:101F600044EAD57418BF1CEA131500F0C780A4EB2F
:101F700005044FF0004545EAC12145EAC32341EA83
:101F8000505143EA525304F17F74994204F50034EE
:101F90004FEAC0204FEAC22208BF904200F09C8066
:101FA0004FEA13650FF24016765D4FEA134506FBC4
:101FB00005F7C7F1807706FB07F74FEAD737A7FB8E
:101FC00003687642C8F58038A7FB06CE38BFA8F173
:101FD000010807FB08E64FF0000EA6FB028CE6FBAB
:101FE00003CEDCF1000CCEF1004E38BFAEF1010E95
:101FF000A6FB0C584FF000074FF00005E6FB0E87DC
:10200000A1FB08C6A0FB07CE16EB0E0645F10005A6
:10201000E1FB076515F1E04E7EBFA4F580345FEA71
:1020200046066D4116F1800745F100054FEA172776
:102030004FEA066647EA0567A6F1DE46B6F1805F1D
:102040004FEA15251FD9384624F0010C05EBC47161
:10205000BCF1FE6F01EB0C1102D8F0BCBDE80081B1
:1020600024425CBF01F5801E9EEAC47F02D4F0BC0E
:10207000BDE80081244238D4F0BCA1F1C041BDE8E4
:10208000004100F0C1B94FEAD22242EA43524FEA7E
:10209000D323A7FB02864FEAD02040EA415007FB3A
:1020A00003661EEA0E0F4FEAD12105FB026658BFF8
:1020B000A6EB0056B6EB00564FEA520E4EEAC37E30
:1020C00018EB0E0E56EB530EBDD518EB02085E4111
:1020D0007F1C55F10005B6E74FF480154FF000075F
:1020E0004FF000064FF00008ADE7F0BC4FF00000E5
:1020F00001F1C04101F00041BDE8008111EA0C1F6F
:102100000CEA131500D00CE013EA0C1F00F0258038
:102110004FF00000F0BC81EA030101F00041BDE88E
:102120000081F0BCBDE8004181EA030100F06CB918
:10213000F0BCBDE8004170B500F018F9097EFC3E26
:1021400000F007B881EA03014FF0000001F0004100
:10215000704781EA030100F057B9F0BCBDE80041C7
:102160004FF0000021497047FFFDFBF9F7F5F4F24D
:10217000F0EEEDEBE9E8E6E4E3E1E0DEDDDBDAD822
:10218000D7D5D4D3D1D0CFCDCCCBCAC8C7C6C5C480
:10219000C2C1C0BFBEBDBCBBBAB9B8B7B6B5B4B397
:1021A000B2B1B0AFAEADACABAAA9A8A8A7A6A5A482
:1021B000A3A3A2A1A09F9F9E9D9C9C9B9A99999846
:1021C0009797969595949393929191908F8F8E8EE9
:1021D0008D8C8C8B8B8A8989888887878685858476
:1021E00084838382828181800000FF070000F87F62
:1021F000B0FA80F310FA03F10AD0C3F11D0303F51E
:1022000080634FEA41504FEA035202EBD1217047FD
:102210004FF0000070470000DFF848C170B51CEABD
:10222000111E1EBF1CEA13159EEA0C0F95EA0C0F37
:1022300000F06F8081EA030423EA4C134EEAD47E57
:1022400021EA4C1141F4801143F48013AE44A1FB08
:10225000024CA0FB0365AEF17F7E361955EB0C05F1
:10226000A1FB034C4CF10003A0FB021C16EB0C0677
:10227000654153F10003094218BF46F0010613F40B
:10228000007F0BD14FEA03314FEA0530340341EAB6
:10229000155140EA16506FF003020AE04FEAC321DD
:1022A0004FEAC520F40241EA555140EA56506FF01A
:1022B000020202EB2E4201EB025585EACE710AD0F2
:1022C0005FEA440C18BF24F0004450F1000041F1D3
:1022D000000120EAD47040F2FE7C624500D270BD5D
:1022E000A84214BF4FF080444FF04044002E08BF76
:1022F0000024BEF1806FA8BFA1F1C041BDE87040CD
:1023000080F282804FF0000001F1C04101F00041F5
:1023100070479EEA0C0F0CEA131518BF95EA0C0FD4
:1023200006D04FF0000081EA030E0EF0004170BDB0
:1023300000F01CF88900013E00F007B800F009B871
:102340004FEA430C5FEA5C5C08D081EA030100F0CD
:102350005BB84FEA410C5FEA5C5CF6D14FF00000DD
:10236000014970470000FF070000F87F0EF1020EE0
:102370002EF0030E5EF8046B364205D4012A43EBBF
:10238000030515F5001F12D8012841EB010C1CF5BF
:10239000001F0CD80ED14FEAD17C15F5001F0CEBB5
:1023A0004C0C0CF1020C08BF4CEBD37C04E04FF05A
:1023B000080C01E04FEAD37C0CEB4C0526FA05F63D
:1023C00006F00706B6F1040C06D20EEB860CBDE84B
:1023D00070404CF0010C6047DFE80CF0090B020282
:1023E0004FF000414FF00000A1F5002170BD1946EB
:1023F0001046012851EB010418BFD4F5001484BF26
:10240000002001F0004170BD0808A0F500114FEA5E
:1024100031017047FF2141EAD050C00570470102E9
:1024200002030405060708090A0B0C0D0E0F101015
:102430000000000000000000010203040607080974
:1024400000000000010203046824000800000020CE
:1024500024000000280100088C240008240000202B
:102460003C070000440100080000010100000100D9
:10247000000000000000000000000000010000005B
:0C24800010000000000000000024F40028
:04000005080000ED02
:00000001FF
